:020000040800F2
:1000000090060020890100088D0100088F0100087A
:10001000910100089301000895010008000000000C
:100020000000000000000000000000009701000830
:1000300099010008000000009B010008330300083C
:100040009F0100089F0100089F0100089F01000810
:100050009F0100089F0100089F0100089F01000800
:100060009F0100089F0100089F0100089F010008F0
:100070009F0100089F0100089F0100089F010008E0
:100080009F0100089F0100089F0100089F010008D0
:100090009F0100089F0100089F0100089F010008C0
:1000A0009F0100089F0100089F0100089F010008B0
:1000B0009F0100089F010008000000009F01000848
:1000C0009F01000800000000000000009F010008E0
:1000D000000000009F0100089F01000800000000D0
:1000E0009F0100089F0100089F01000800F002F82E
:1000F00000F03AF80AA090E8000C82448344AAF188
:100100000107DA4501D100F02FF8AFF2090EBAE885
:100110000F0013F0010F18BFFB1A43F0010318473B
:10012000F405000014060000103A24BF78C878C116
:10013000FAD8520724BF30C830C144BF04680C60ED
:10014000704700000023002400250026103A28BF35
:1001500078C1FBD8520728BF30C148BF0B60704739
:100160001FB51FBD10B510BD00F09DFA1146FFF779
:10017000F7FF00F05DFA00F0BBFA03B4FFF7F2FFFF
:1001800003BC00F0BFFA000008480047FEE7FEE7A6
:10019000FEE7FEE7FEE7FEE7FEE7FEE7FEE7FEE737
:1001A00003480449044A054B70470000ED0000086D
:1001B0009000002090060020900200209002002075
:1001C0008120244908600020486070471F291EDCF8
:1001D00020B101280AD0022818D10FE01D4A526927
:1001E00001238B401A431B4B5A610FE0194AD36914
:1001F00001228A401343174AD36107E0154A9269E6
:1002000001238B401A43134B9A6100BF00BF704714
:100210001F291EDC20B101280AD0022818D10FE0C6
:100220000C4A526901238B409A430A4B5A610FE0F2
:10023000084AD36901228A409343064AD36107E002
:10024000044A926901238B409A43024B9A6100BF92
:1002500000BF70470010024000204FF0E02108610D
:1002600070474FF0E0214861096941F001014FF00A
:10027000E022116100BF4FF0E0210969C1F30041A4
:100280000029F8D04FF0E021096941F001014FF059
:10029000E022116100215161916170474FF0E0222D
:1002A0005061126942F001024FF0E0231A612F4AB7
:1002B000116000222E4B1A704FF0E022126942F0BA
:1002C00002024FF0E0231A6170474FF0E0225061C4
:1002D000126942F001024FF0E0231A61234A1160D3
:1002E0000122234B1A704FF0E022126942F0020201
:1002F0004FF0E0231A6170474FF0E020006920F0D2
:1003000002004FF0E02108610846006940F001005A
:10031000086100204861886170474FF0E021496919
:100320004FF0E0229269881A70474FF0E021886907
:10033000704710B50E48007878B94FF0E02000699A
:1003400020F002004FF0E02108610846006940F00B
:100350000100086100204861886104480068804706
:100360004FF0E0200069C0F3004410BD0000002001
:100370000400002030B520B101282ED002282BD156
:1003800054E0072910DC744B1B688D000F24AC402F
:10039000A343714C236023461B688C0002FA04F4CB
:1003A00023436D4C236017E00F2915DCA1F10803EE
:1003B000D9B2694B1B1D1B688D000F24AC40A343B1
:1003C000654C241D236023461B688C0002FA04F44C
:1003D0002343614C241D236054E0072910DC5F4B4C
:1003E0001B688D000F24AC40A3435C4C2360234664
:1003F0001B688C0002FA04F42343584C236014E079
:100400000F2912DCA1F10803D9B2554B5B688D00AE
:100410000F24AC40A343524C636023465B688C00BE
:1004200002FA04F423434E4C63602BE0072910DCEE
:10043000494B1B688D000F24AC40A343464C2360FE
:1004400023461B688C0002FA04F42343424C2360C9
:1004500017E00F2915DCA1F10803D9B23E4B1B1D93
:100460001B688D000F24AC40A3433B4C241D23602C
:1004700023461B688C0002FA04F42343364C241DE7
:10048000236000BF00BF30BD10B520B1012819D0D6
:10049000022841D12DE0012A09D12F4B0C331B68D2
:1004A00001248C4023432C4C0C34236009E042B9D6
:1004B000294B0C331B6801248C40A343264C0C347D
:1004C000236029E0012A09D1244B0C331B68012445
:1004D0008C402343214C0C34236009E042B91F4B6C
:1004E0000C331C6801238B409C431C4B0C331C6059
:1004F00012E0012A07D11A4BDC6801238B401C4310
:10050000174BDC6007E032B9154BDB6801248C40E7
:10051000A343134CE36000BF00BF10BD02460020A0
:1005200022B1012A09D0022A14D10DE00A4B083366
:100530001B68CB4003F001000CE0084B08331B683C
:10054000CB4003F0010005E0054B9B68CB4003F076
:10055000010000BF00BF704700080140000C0140CF
:100560000010014010B500EB40031A4C24F8231092
:1005700000EB400304EB83035A6010BD10B5002468
:1005800000BF14E004EB4400124931F82000124986
:10059000098891FBF0F200FB121030B904EB440122
:1005A0000C4A02EB810148688047601CC4B2032CEE
:1005B000E8DB09480088401C0749088010BD10B5D9
:1005C000FFF74AFEAFF24B014FF47A70FFF77DFE62
:1005D00010BD00000C0000200600002010B52D48C2
:1005E000007880F001002B4908700846027800214D
:1005F0000846FFF749FF10BD10B52748007880F086
:100600000100254908700846027801210020FFF703
:100610003BFF10BD10B52148007880F001001F4954
:1006200008700846027802210020FFF72DFF10BD58
:10063000FFF7C6FD00210220FFF7C8FD0221084692
:10064000FFF7C4FD022200210846FFF793FE0222B5
:1006500001210020FFF78EFE022211460020FFF745
:1006600089FEAFF287024FF47A710020FFF77AFF1C
:10067000AFF27B024FF4FA610120FFF773FFAFF294
:100680006B0240F6B8310220FFF76CFFFFF797FFCF
:1006900000BFFEE708000020090000200A0000203B
:1006A000704770477047754600F028F8AE46050061
:1006B0006946534620F00700854618B020B5FFF77D
:1006C0006FFDBDE820404FF000064FF000074FF0EF
:1006D00000084FF0000B21F00701AC46ACE8C00960
:1006E000ACE8C009ACE8C009ACE8C0098D46704769
:1006F0000446AFF300802046FFF73FFD00487047F7
:100700003000002001491820ABBEFEE726000200A1
:100710007047000034070008000000200C000000B3
:1007200028010008400700080C0000208406000093
:10073000440100080000000000000000000000006C
:040000050800018965
:00000001FF
